:100000000C945D000C9485000C9485000C94850084
:100010000C9485000C9485000C9485000C9485004C
:100020000C9485000C9485000C9485000C9485003C
:100030000C9485000C9485000C9485000C9485002C
:100040000C9452080C9485000C94C2080C949C08E3
:100050000C9485000C9485000C9485000C9485000C
:100060000C9433070C948500000000080002010086
:100070000003040700000000000000000000000072
:10008000250028002B0000000000240027002A0083
:10009000040404040404040402020202020203032E
:1000A0000303030301020408102040800102040836
:1000B0001020010204081020F40811241FBECFEF05
:1000C000D8E0DEBFCDBF11E0A0E0B1E0E6E1FDE1A8
:1000D00002C005900D92AE32B107D9F722E0AEE230
:1000E000B1E001C01D92A63CB207E1F710E0CDE5FA
:1000F000D0E004C02197FE010E94270BCC35D10728
:10010000C9F70E948E090C94890E0C94000090E0AF
:10011000FC01EC55FF4F249180579F4FFC018491C7
:10012000882399F090E0880F991FFC01EA57FF4F50
:10013000A591B491FC01E458FF4F859194918FB73C
:10014000F894EC91E22BEC938FBF089508950895F5
:1001500020915801260F3327331F21323105ECF44B
:100160002091C701FC0190E080E0243069F082E03A
:100170000895A09158012191AC01485C5E4FA40FF5
:10018000B52FB11D2C930196861798F380915801D5
:10019000680F6093580180E0089581E00895089504
:1001A000E091800180917F01E81730F4F0E0EF5793
:1001B000FE4F808190E008958FEF9FEF089590911A
:1001C000800180917F012FEF3FEF981748F4E92FCE
:1001D000F0E0EF57FE4F208130E09F5F9093800169
:1001E000C901089580917F0190918001891B990B2D
:1001F0000895CF92DF92EF92FF920F931F93CF93C8
:10020000DF937C01CB018A012091CD01222389F06B
:10021000EB016B01C40ED51ECC15DD0569F06991AB
:10022000D701ED91FC910190F081E02DC701099576
:10023000F3CF642F0E94A800C801DF91CF911F91D6
:100240000F91FF90EF90DF90CF900895CF93DF93C1
:100250001F92CDB7DEB769832091CD012223F9F03B
:100260002091F001203258F021E030E0FC0133838E
:10027000228390E080E00F90DF91CF9108958091EC
:10028000CE01E82FF0E0E153FE4F998190838F5F1C
:100290008093CE018093F00181E090E0ECCF61E0AB
:1002A000CE0101960E94A800F7CF90E0FC01E8592A
:1002B000FF4F2491FC01EC55FF4F3491FC01E057B6
:1002C000FF4FE491EE23C9F0222339F0233001F1EE
:1002D000A8F4213019F1223029F1F0E0EE0FFF1FD0
:1002E000E458FF4FA591B4918FB7F894EC91611148
:1002F00026C030953E233C938FBF08952730A9F048
:100300002830C9F0243049F7809180008F7D03C0E8
:10031000809180008F7780938000DFCF84B58F77C6
:1003200084BDDBCF84B58F7DFBCF8091B0008F770C
:100330008093B000D2CF8091B0008F7DF9CF3E2B5B
:10034000DACF1092C70181E08093C6011092A1011B
:1003500061E082E10E94550161E083E10E94550164
:10036000E9EBF0E080818E7F808380818D7F8083C8
:1003700088E48093B80085E48093BC000895CF930F
:10038000DF9391E0909337018823B9F0C091B800D2
:10039000D091BA008091BC008A7B8093BC0060E061
:1003A00082E10E94550160E083E10E9455010E94B4
:1003B000A101D093BA00C093B800DF91CF91089506
:1003C0003FB7F8948091330190913401A0913501A9
:1003D000B091360126B5A89B05C02F3F19F00196B4
:1003E000A11DB11D3FBFBA2FA92F982F8827BC018F
:1003F000CD01620F711D811D911D42E0660F771FB7
:10040000881F991F4A95D1F708958F929F92AF92B6
:10041000BF92CF92DF92EF92FF920F931F93CF93F1
:10042000DF93D091F001D13208F0D7C0182FC091DE
:10043000EF010E94E0016B017C018091C7018111F5
:100440006BC082E08093C7011093C6018FEF809349
:10045000C5011092C401D093C301AFECB1E0E3EA4F
:10046000F1E080E0D81391C01092A2018091A20126
:10047000CC0FC82BC093A2018091A101813009F05B
:1004800088C01092A1010E94E0016B017C01809163
:10049000A2018093BB008091C9019091CA01A091F3
:1004A000CB01B091CC01892B8A2B8B2BA1F00E9420
:1004B000E0010091C9011091CA012091CB01309156
:1004C000CC016C197D098E099F09061717072807AB
:1004D000390708F442C08091BC0083FDD8CF85EC79
:1004E0008093BC000E94E0016B017C018091C701F8
:1004F000823009F450C08091C5018F3F09F46FC06C
:100500008091C501803209F46CC08091C5018033AF
:1005100009F469C084E026C08091C9019091CA01A4
:10052000A091CB01B091CC01892B8A2B8B2B09F4A4
:1005300084CF0E94E0018090C9019090CA01A090F0
:10054000CB01B090CC016C197D098E099F098616EC
:100550009706A806B90608F070CF8091C8010E94DE
:10056000BF0185E01092CE011092F0011092CD01F2
:10057000DF91CF911F910F91FF90EF90DF90CF907F
:10058000BF90AF909F908F9008959D9191938F5FB2
:1005900069CF85EEA5CF8091C9019091CA01A09144
:1005A000CB01B091CC01892B8A2B8B2B09F49ECFE8
:1005B0000E94E0010091C9011091CA012091CB0174
:1005C0003091CC016C197D098E099F090617170718
:1005D0002807390708F08ACFC0CF81E0C3CF80E079
:1005E000C1CF82E0BFCF83E0BDCF1F93CF93DF9316
:1005F000EA01122FDC0111968D919C91DC01ED91A5
:10060000FC910280F381E02D0995C817D90729F4E0
:10061000812F0E94050291E0811190E0892FDF91E6
:10062000CF911F910895CF93DF93EC018B818823A5
:10063000A1F0888191E09093CD018093EF01109219
:10064000CE011092F00181E00E94050291E081113B
:1006500090E0892FDF91CF91089510928001109240
:100660007F011092CE011092F0010E94A10186EA52
:1006700090E090937E0180937D0187EA90E09093D3
:100680007C0180937B0181E08B83CE010E94130368
:10069000982F8111CECFDDCF8F929F92AF92BF92D4
:1006A000CF92DF92EF92FF924B015C010E94E0013A
:1006B0006B017C010E94E0016C197D098E099F0984
:1006C000683E734081059105A8F321E0821A9108E4
:1006D000A108B10888EEC80E83E0D81EE11CF11C09
:1006E00081149104A104B10429F7FF90EF90DF90E9
:1006F000CF90BF90AF909F908F900895AF92BF9290
:10070000CF92DF92EF92FF920F931F93CF93DF93DD
:100710006C017B018B01040F151FEB015E01AE180C
:10072000BF08C017D10759F06991D601ED91FC912E
:100730000190F081E02DC6010995892B79F7C5015B
:10074000DF91CF911F910F91FF90EF90DF90CF90AD
:10075000BF90AF90089590E080E00895FC01538D24
:10076000448D252F30E0842F90E0821B930B54178B
:1007700010F0CF96089501970895FC01918D828D18
:10078000981761F0A28DAE0FBF2FB11D5D968C91B1
:10079000928D9F5F9F73928F90E008958FEF9FEFF0
:1007A0000895FC01918D828D981731F0828DE80FAC
:1007B000F11D858D90E008958FEF9FEF0895FC0166
:1007C000918D228D892F90E0805C9F4F821B910933
:1007D0008F739927089581EF91E00E94DF0321E054
:1007E000892B09F420E0822F089580E090E0892B86
:1007F00029F00E94EB0381110C9400000895FC0184
:10080000A48DA80FB92FB11DA35ABF4F2C91848D71
:1008100090E001968F739927848FA689B7892C93CE
:10082000A089B1898C91837080648C93938D848D21
:10083000981306C00288F389E02D80818F7D808324
:100840000895EF92FF920F931F93CF93DF93EC01E4
:1008500081E0888F9B8D8C8D98131AC0E889F98967
:10086000808185FF15C09FB7F894EE89FF8960836A
:10087000E889F98980818370806480839FBF81E0EB
:1008800090E0DF91CF911F910F91FF90EF9008952D
:10089000F62E0B8D10E00F5F1F4F0F731127E02E08
:1008A0008C8D8E110CC00FB607FCFACFE889F98940
:1008B000808185FFF5CFCE010E94FF03F1CFEB8D44
:1008C000EC0FFD2FF11DE35AFF4FF0829FB7F89414
:1008D0000B8FEA89FB8980818062CFCFCF93DF9332
:1008E000EC01888D8823B9F0AA89BB89E889F98948
:1008F0008C9185FD03C0808186FD0DC00FB607FC7D
:10090000F7CF8C9185FFF2CF808185FFEDCFCE01AF
:100910000E94FF03E9CFDF91CF9108951F93CF93FA
:10092000DF9300D000D01F92CDB7DEB7880F880FBD
:100930008A5F89831A821B826C837D838091AB02DC
:100940009091AC02FC012481358125303105E0F025
:10095000208111E01093CD012093EF011092CE0180
:100960001092F00121E045E050E0BE016F5F7F4F43
:100970000E94F50281270F900F900F900F900F901B
:10098000DF91CF911F91089581E0F5CFCF93DF9351
:1009900000D0CDB7DEB789836A838091AB02909196
:1009A000AC02FC01248135812230310590F0208198
:1009B00031E03093CD012093EF011092CE011092DF
:1009C000F00121E042E050E0BE016F5F7F4F0E94E6
:1009D000F5020F900F90DF91CF9108952F923F92E3
:1009E0004F925F926F927F928F929F92AF92BF923F
:1009F000CF92DF92EF92FF920F931F93CF93DF93EB
:100A00001F92CDB7DEB76B017C0120E030E040E8FB
:100A10005FE30E949A0B87FDECC020E030EC4AE5D2
:100A200055E4C701B6010E94F20C18160CF4E8C098
:100A30006091AD027091AE028091AF029091B002D0
:100A40000E94400C4B015C0120E030E040E855E49E
:100A5000C701B6010E94F70C9B01AC01C501B401AE
:100A60000E949F0B20E030E040E05FE30E942E0BED
:100A700020E030E040E85FE30E942D0B6B017C0139
:100A800020E030E040E450E40E949A0B87FDC0C0B3
:100A900020E030E04FE753E4C701B6010E94F20CBA
:100AA00018160CF4BBC0C701B6010E94110C962E9B
:100AB0001982E090AB02F090AC02D70114968D91B0
:100AC0009C911597892B09F41AC18C9191E0909310
:100AD000CD018093EF011092CE011092F00120E041
:100AE00041E050E0BE016F5F7F4FC7010E94F502F9
:100AF000882309F404C18824839485EC382EF701F7
:100B0000C480D58001E0C114D10409F400E0A02E16
:100B1000B12CD7012C900E94E0012B013C01809167
:100B2000C701811182C0102F8092C7010093C601B6
:100B3000BFEFB093C5011092C4018FEF800F809377
:100B4000C3018092A2018091A201220C282A209246
:100B5000A2018091A101813009F0A8C01092A101E9
:100B60000E94E0012B013C018091A2018093BB0017
:100B70008091C9019091CA01A091CB01B091CC01A3
:100B8000892B8A2B8B2BA1F00E94E0012091C901B7
:100B90003091CA014091CB015091CC016419750983
:100BA00086099709261737074807590708F45EC0D2
:100BB0008091BC0083FDD8CF3092BC000E94E00140
:100BC0002B013C018091C701813009F473C08091F1
:100BD000C401801710F41091C401E3EAF1E0A1E828
:100BE000B1E080E0811709F446C091919D938F5F39
:100BF000F9CFC12CD12C40E8E42E4FE3F42E18CFCE
:100C0000C12C30ECD32E3AE5E32E35E4F32E10CF91
:100C1000C12CD12C20E4E22EFE2C45CFC12CD12CAE
:100C20009FE7E92E93E4F92E3ECF8091C901909180
:100C3000CA01A091CB01B091CC01892B8A2B8B2BBF
:100C400009F46DCF0E94E0012091C9013091CA01E1
:100C50004091CB015091CC0164197509860997091F
:100C6000261737074807590708F059CF8091C80160
:100C70000E94BF0110E01092800110937F011A15AD
:100C80001B04E9F590E080E08A159B05A8F5D701E3
:100C900011968D919C91DC01ED91FC910284F3857C
:100CA000E02D0995898381E090E0EECFE5EEE093B9
:100CB000BC0084CF8091C9019091CA01A091CB0161
:100CC000B091CC01892B8A2B8B2B09F47BCF0E940E
:100CD000E0012091C9013091CA014091CB015091AE
:100CE000CC01641975098609970926173707480743
:100CF000590708F067CFBACFCD2809F400CF198182
:100D0000612F6F76606180E00E94C604692D8EEFCE
:100D10000E94C604612F80E00E94C60465E070E076
:100D200080E090E00E944C03612F606A80E00E94A6
:100D3000C6040F90DF91CF911F910F91FF90EF901C
:100D4000DF90CF90BF90AF909F908F907F906F90EB
:100D50005F904F903F902F9008958F929F92AF9207
:100D6000BF920F931F93CF93DF93CDB7DEB7A197B9
:100D70000FB6F894DEBF0FBECDBF19A2423008F403
:100D80004AE08E010F5D1F4F842E912CB12CA12CB7
:100D9000A50194010E94050BE62FB901CA01EA30B2
:100DA00044F5E05DD801EE938D01232B242B252BF8
:100DB00079F790E080E0109769F0FD010190002044
:100DC000E9F73197AF014A1B5B0BBD0181EF91E061
:100DD0000E947E03A1960FB6F894DEBF0FBECDBF72
:100DE000DF91CF911F910F91BF90AF909F908F9007
:100DF0000895E95CD7CF85ED8093BC008091C9014F
:100E00009091CA01A091CB01B091CC010796A11D90
:100E1000B11D23E0B695A795979587952A95D1F7AB
:100E20002091BC0024FD03C01092C7010895409199
:100E3000C9015091CA016091CB017091CC01452B41
:100E4000462B472B69F30097A105B10541F02AE233
:100E50002A95F1F700C00197A109B109E1CF80916E
:100E6000C8010C94BF011F920F920FB60F9211246C
:100E70002F933F934F935F936F937F938F939F93A2
:100E8000AF93BF93EF93FF938091B900887F803633
:100E900009F44AC0F0F5883209F4A7C018F580318A
:100EA00009F49BC0B8F4882309F4F9C0883009F428
:100EB00094C0FF91EF91BF91AF919F918F917F91DE
:100EC0006F915F914F913F912F910F900FBE0F90B7
:100ED0001F901895883109F488C0803251F78093AB
:100EE000C50114C0803409F49DC040F48033B9F3C7
:100EF0008833F9F68093C50185ECB0C0803509F4DC
:100F000085C0883509F496C0883499F60E94FB069E
:100F1000D0CF883909F48CC038F5883729F050F4DF
:100F2000883611F0803729F683E08093C70110924C
:100F30007A0157C0883809F47BC0803919F08038AD
:100F400009F0B7CF80917A01803208F071C0E0914A
:100F50007A0181E08E0F80937A018091BB00F0E0EE
:100F6000E65AFE4F80833DC0803B39F0E0F4803A82
:100F700009F479C0883A09F09CCF84E08093C701D6
:100F80001092590110925801E0917D01F0917E017B
:100F900009958091580181110FC081E0809358011B
:100FA0001092380109C0803C09F4A6CF883C09F4AE
:100FB000A3CF883B09F07DCFE091590181E08E0FEE
:100FC00080935901F0E0E85CFE4F80818093BB0084
:100FD000909159018091580129C08091A20180937C
:100FE000BB0085EC8093BC0064CF9091C4018091DC
:100FF000C301981758F5E091C40181E08E0F8093EA
:10100000C401F0E0ED55FE4F8081E9CFE091C401CD
:1010100081E08E0F8093C4018091BB00F0E0ED551C
:10102000FE4F80839091C4018091C3019817C8F24C
:1010300085E8D8CFE091C40181E08E0F8093C40190
:101040008091BB00F0E0ED55FE4F80838091C6019A
:1010500081115CCF81E08093A10184EA8093BC0080
:101060001092C70126CF85EC8093BC001092C70177
:1010700080917A01803230F4E0917A01F0E0E65A12
:10108000FE4F108260917A0170E0E0917B01F09157
:101090007C018AE591E0099510927A010ACF1092BD
:1010A000C50134CF1F920F920FB60F9211242F93C8
:1010B0003F938F939F93AF93BF9380912F01909114
:1010C0003001A0913101B091320130912E0123E025
:1010D000230F2D3758F50196A11DB11D20932E0128
:1010E00080932F0190933001A0933101B09332018E
:1010F0008091330190913401A0913501B091360176
:101100000196A11DB11D8093330190933401A093EA
:101110003501B0933601BF91AF919F918F913F916F
:101120002F910F900FBE0F901F90189526E8230F58
:101130000296A11DB11DD2CF1F920F920FB60F9232
:1011400011242F933F934F935F936F937F938F93CC
:101150009F93AF93BF93EF93FF9381EF91E00E9432
:10116000FF03FF91EF91BF91AF919F918F917F917D
:101170006F915F914F913F912F910F900FBE0F9004
:101180001F9018951F920F920FB60F9211242F9354
:101190008F939F93EF93FF93E0910102F0910202EE
:1011A0008081E0910702F091080282FD1BC09081CE
:1011B00080910A028F5F8F7320910B02821741F09A
:1011C000E0910A02F0E0EF50FE4F958F80930A0203
:1011D000FF91EF919F918F912F910F900FBE0F90E4
:1011E0001F9018958081F4CFCF93DF93CDB7DEB7F2
:1011F00029970FB6F894DEBF0FBECDBFAEE8B2E0C0
:1012000013961C921E92129748EE53E060E070E035
:1012100014964D935D936D937C9317978AE091E0BC
:1012200011969C938E93E1EFF1E013821282448336
:101230005583668377838CE191E09183808385EC8D
:1012400090E09587848784EC90E09787868780EC90
:1012500090E0918B808B81EC90E0938B828B82EC81
:1012600090E0958B848B86EC90E0978B868B118E2B
:10127000128E138E148EE9EBF2E080E48083B28349
:10128000A18314821382E1EBF2E088E090E0918385
:10129000808389E090E0938382838AE090E0958365
:1012A000848388EC90E09783868389E0E9EBF2E021
:1012B000DE01119601900D928A95E1F7EAE9F2E0DC
:1012C00086E090E09183808382E090E09383828344
:1012D00082E390E09583848384E690E0978386831D
:1012E0008CE192E09187808780EC9CEFABE9B1E0E4
:1012F00082879387A487B58789E0FE013196A8EAA3
:10130000B2E001900D928A95E1F729960FB6F89414
:10131000DEBF0FBECDBFDF91CF910895789484B525
:10132000826084BD84B5816084BD85B5826085BDE1
:1013300085B5816085BD80916E00816080936E006F
:101340001092810080918100826080938100809161
:101350008100816080938100809180008160809312
:1013600080008091B10084608093B1008091B000D2
:1013700081608093B00080917A00846080937A00CD
:1013800080917A00826080937A0080917A008160F7
:1013900080937A0080917A00806880937A0010921E
:1013A000C100E0910102F091020282E08083E091AD
:1013B000FD01F091FE011082E091FF01F091000229
:1013C0008FEC808310920902E0910502F0910602F1
:1013D00086E08083E0910302F091040280818061C5
:1013E0008083E0910302F091040280818860808311
:1013F000E0910302F0910402808180688083E09193
:101400000302F091040280818F7D80838091B50278
:101410000E9487008091B3020E9487008091B102F0
:101420000E9487008091AB029091AC02009711F06E
:101430000E94000E86E090E00E94640DEC01809115
:10144000A9029091AA022091A80228839A838983F5
:101450001B8280E290E09D838C83D093AC02C0938A
:10146000AB021092800110927F011092CE01109277
:10147000F0010E94A10186EA90E090937E018093A2
:101480007D0187EA90E090937C0180937B0181E06D
:101490008B83CE010E9413038823E1F060E880E093
:1014A0000E94C6046AE070E080E090E00E944C0375
:1014B00080E498E7ADE7B1E08093AD029093AE028F
:1014C000A093AF02B093B00260E070E08AE794E4CA
:1014D0000E94EE048091A4029091A502A091A60220
:1014E000B091A7028093AD029093AE02A093AF0299
:1014F000B093B00260919E0270919F02072E000C83
:10150000880B990B0E94420C0E94EE0480919C0271
:101510000E94870060E080919C020E94550110E0CB
:10152000C091A002D091A1026E010D2E000CEE0818
:10153000FF084AE0C701B601F7FE0DC06DE281EF7A
:1015400091E00E94210466277727CB016C197D0961
:101550008E099F094AE00E94AD0642E050E06AE22F
:1015600071E081EF91E00E947E03BE01812F0E9415
:101570008E041F5F1630A1F66AE070E080E090E014
:101580000E944C0300E010E0E090A202F090A30261
:10159000C091A002D091A102CE15DF05A4F4D0E045
:1015A000C0E080919A0290919B02C817D90734F449
:1015B000B7018C2F0E948E042196F3CF82E0E81AA7
:1015C000F108E6CF22968091A2029091A302C8175B
:1015D000D9078CF4F12CE12C80919A0290919B0216
:1015E000E816F9067CF7BE018E2D0E948E048FEF5F
:1015F000E81AF80AF1CF0115110531F20E94EB0348
:10160000882311F20E940000BFCFA1E21A2EAA1B6C
:10161000BB1BFD010DC0AA1FBB1FEE1FFF1FA217A2
:10162000B307E407F50720F0A21BB30BE40BF50B9F
:10163000661F771F881F991F1A9469F76095709528
:10164000809590959B01AC01BD01CF010895EE0FEF
:10165000FF1F0590F491E02D09945058BB27AA274D
:101660000E94450B0C94B80C0E94AA0C38F00E9402
:10167000B10C20F039F49F3F19F426F40C94A70C18
:101680000EF4E095E7FB0C94A10CE92F0E94C90C25
:1016900058F3BA17620773078407950720F079F4A7
:1016A000A6F50C94EB0C0EF4E0950B2EBA2FA02DA2
:1016B0000B01B90190010C01CA01A0011124FF27FF
:1016C000591B99F0593F50F4503E68F11A16F040FA
:1016D000A22F232F342F4427585FF3CF46953795F9
:1016E0002795A795F0405395C9F77EF41F16BA0BBE
:1016F000620B730B840BBAF09150A1F0FF0FBB1F6C
:10170000661F771F881FC2F70EC0BA0F621F731FB4
:10171000841F48F4879577956795B795F7959E3F11
:1017200008F0B0CF9395880F08F09927EE0F9795A2
:10173000879508950E947D0C08F481E008950E9429
:10174000B30B0C94B80C0E94B10C58F00E94AA0C78
:1017500040F029F45F3F29F00C94A10C51110C9436
:10176000EC0C0C94A70C0E94C90C68F39923B1F3FC
:10177000552391F3951B550BBB27AA2762177307B7
:10178000840738F09F5F5F4F220F331F441FAA1F4B
:10179000A9F335D00E2E3AF0E0E832D09150504007
:1017A000E695001CCAF72BD0FE2F29D0660F771FB5
:1017B000881FBB1F261737074807AB07B0E809F09B
:1017C000BB0B802DBF01FF2793585F4F3AF09E3F20
:1017D000510578F00C94A10C0C94EC0C5F3FE4F3F1
:1017E000983ED4F3869577956795B795F7959F5F63
:1017F000C9F7880F911D9695879597F90895E1E0AF
:10180000660F771F881FBB1F621773078407BA070D
:1018100020F0621B730B840BBA0BEE1F88F7E09568
:1018200008950E94D10C88F09F5798F0B92F9927FE
:10183000B751B0F0E1F0660F771F881F991F1AF0BB
:10184000BA95C9F714C0B13091F00E94EB0CB1E029
:1018500008950C94EB0C672F782F8827B85F39F028
:10186000B93FCCF3869577956795B395D9F73EF454
:1018700090958095709561957F4F8F4F9F4F0895FC
:10188000E89409C097FB3EF490958095709561951A
:101890007F4F8F4F9F4F9923A9F0F92F96E9BB27D0
:1018A0009395F695879577956795B795F111F8CF4C
:1018B000FAF4BB0F11F460FF1BC06F5F7F4F8F4FB7
:1018C0009F4F16C0882311F096E911C0772321F0AD
:1018D0009EE8872F762F05C0662371F096E8862F45
:1018E00070E060E02AF09A95660F771F881FDAF79C
:1018F000880F9695879597F90895990F0008550FC9
:10190000AA0BE0E8FEEF16161706E807F907C0F085
:1019100012161306E407F50798F0621B730B840B8D
:10192000950B39F40A2661F0232B242B252B21F467
:1019300008950A2609F4A140A6958FEF811D811D07
:10194000089597F99F6780E870E060E008959FEF41
:1019500080EC089500240A94161617061806090646
:10196000089500240A941216130614060506089515
:10197000092E0394000C11F4882352F0BB0F40F49D
:10198000BF2B11F460FF04C06F5F7F4F8F4F9F4FDD
:10199000089557FD9058440F551F59F05F3F71F05F
:1019A0004795880F97FB991F61F09F3F79F08795C6
:1019B0000895121613061406551FF2CF4695F1DF4F
:1019C00008C0161617061806991FF1CF86957105DF
:1019D000610508940895E894BB2766277727CB0113
:1019E00097F908950E947D0C08F48FEF08950E94E6
:1019F0000A0D0C94B80C0E94AA0C38F00E94B10C8D
:101A000020F0952311F00C94A10C0C94A70C112438
:101A10000C94EC0C0E94C90C70F3959FC1F3950FC8
:101A200050E0551F629FF001729FBB27F00DB11D62
:101A3000639FAA27F00DB11DAA1F649F6627B00DF2
:101A4000A11D661F829F2227B00DA11D621F739FDB
:101A5000B00DA11D621F839FA00D611D221F749FE9
:101A60003327A00D611D231F849F600D211D822F30
:101A7000762F6A2F11249F5750409AF0F1F0882357
:101A80004AF0EE0FFF1FBB1F661F771F881F915084
:101A90005040A9F79E3F510580F00C94A10C0C9486
:101AA000EC0C5F3FE4F3983ED4F386957795679509
:101AB000B795F795E7959F5FC1F7FE2B880F911DAE
:101AC0009695879597F908950F931F93CF93DF937A
:101AD0008230910510F482E090E0E091C402F09130
:101AE000C50230E020E0B0E0A0E0309799F4211585
:101AF000310509F44AC0281B390B24303105D8F5CB
:101B00008A819B816115710589F1FB019383828331
:101B1000FE0111C04081518102811381481759078C
:101B2000E0F04817590799F4109761F012960C935A
:101B3000129713961C933296CF01DF91CF911F918C
:101B40000F9108950093C4021093C502F4CF21159C
:101B5000310551F04217530738F0A901DB019A0112
:101B6000BD01DF01F801C1CFEF01F9CF9093C502AC
:101B70008093C402CDCFFE01E20FF31F81939193B6
:101B80002250310939832883D7CF2091C202309166
:101B9000C302232B41F420910201309103013093C1
:101BA000C3022093C202209100013091010121154E
:101BB000310541F42DB73EB7409104015091050124
:101BC000241B350BE091C202F091C302E217F30728
:101BD000A0F42E1B3F0B2817390778F0AC014E5F9D
:101BE0005F4F2417350748F04E0F5F1F5093C30215
:101BF0004093C202819391939FCFF0E0E0E09CCFAD
:101C0000CF93DF930097E9F0FC01329713821282A1
:101C1000A091C402B091C502ED0130E020E0109720
:101C2000A1F420813181820F931F2091C202309153
:101C3000C3022817390709F061C0F093C302E0938B
:101C4000C202DF91CF910895EA01CE17DF07E8F5D0
:101C50004A815B819E0141155105B1F7E901FB8382
:101C6000EA8349915991C40FD51FEC17FD0761F420
:101C7000808191810296840F951FE9019983888361
:101C8000828193819B838A83F0E0E0E012968D91BC
:101C90009C9113970097B9F52D913C911197CD0127
:101CA0000296820F931F2091C2023091C30228171F
:101CB000390739F6309751F51092C5021092C402D7
:101CC000B093C302A093C202BCCFD383C28340812E
:101CD0005181840F951FC817D90761F44E5F5F4F7C
:101CE00088819981480F591F518340838A819B8144
:101CF000938382832115310509F0B0CFF093C5029B
:101D0000E093C4029ECFFD01DC01C0CF138212829A
:061D1000D7CFF894FFCFCD
:101D16000000C6028000000000002601F900AB03A7
:101D2600CF00F200DF00D0000000000021047E0397
:0E1D3600AE036E04DF03BD03D1030D0A0000EF
:00000001FF
